:100000000C9413010C944B010C944B010C944B0178
:100010000C944B010C944B010C944B010C944B0130
:100020000C944B010C944B010C94101B0C94E41B8E
:100030000C941D160C944B010C944B010C944B0129
:100040000C944B010C944B010C944B010C944B0100
:100050000C944B010C94A4160C944B010C944B0182
:100060000C944B010C944B010C944B010C944B01E0
:100070000C944B010C944B010C944B010C944B01D0
:100080000C944B010C944B010C944B010C944B01C0
:100090000C944B010C944B010C944B010C944B01B0
:1000A0000C944B010C944B010C944B01AA00A8003A
:1000B000A900AC00AE00AB0014036D00610063004A
:1000C00072006F00700061006400310000000E03D8
:1000D00051007500740069006E006F000000040399
:1000E000090409023B00020100A0FA090400000112
:1000F00003010100092111010001224000070581CF
:100100000308000109040100010300000009211196
:1001100001000122B6000705820320000112010040
:100120000200000008EDFE000000010102000105D0
:10013000010902A10185020901A10005091901298E
:10014000081500250195087501810205010930098E
:10015000311581257F95027508810609381581259D
:100160007F950175088106050C0A38021581257FE7
:10017000950175088106C0C005010980A1018503AC
:1001800019012AB700150126B700950175108100E5
:10019000C0050C0901A101850419012AA00215015D
:1001A00026A002950175108100C005010906A10174
:1001B0008506050719E029E7150025019508750151
:1001C00081020507190029EF1500250195F0750139
:1001D000810205081901290595057501910295010E
:1001E00075039101C005010906A101050719E02960
:1001F000E7150025019508750181029501750881B3
:10020000010507190029FF150026FF00950675084E
:1002100081000508190129059505750191029501CF
:1002200075039101C00011241FBECFEFDAE0DEBFDD
:10023000CDBF04B603FE18C0809182029091830264
:10024000A0918402B09185028730904BA740B04BBB
:1002500059F410928202109283021092840210923A
:100260008502E0E0F8E3099511E0A0E0B1E0E2E307
:10027000FDE302C005900D92AA38B107D9F722E03C
:10028000AAE8B1E001C01D92A238B207E1F70E94CE
:1002900043100C94581E0C940000811112C062305F
:1002A00080F4433070F4E42FF0E083E0689FE00DC9
:1002B000F11D1124EE0FFF1FE455FF4F859194911E
:1002C000089581E090E008950E944D01089581E035
:1002D00008950E946701089581E008950E946701D2
:1002E00008950E946E01089508950E947401089572
:1002F000A6E0B0E0EEE7F1E00C94B41D49835A8328
:100300009E833091910189819A8131111AC03E8179
:10031000332399F0222389F00E940807182F682FB1
:1003200089819A810E94E40669817A81812F0E94E5
:10033000E00D2696E3E00C94D01D0E94F606182FDF
:10034000F3CF0E94080769817A81F1CFFC01262F43
:100350004081518162817381848195810E947801FD
:100360000895CF93DF93EC0161E00E94A601BE01E6
:100370000E946901DF91CF910895CF93DF93EC0143
:1003800060E00E94A601BE010E947501DF91CF913D
:10039000089508950E94B9050E94C9012FEF84E3D2
:1003A0009CE0215080409040E1F700C0000008959B
:1003B0000E94CA010E94C81608950E94CA010E94A4
:1003C000EC1608950F931F93CF93DF938C0161E098
:1003D0000E94A601EC01B8010E947101811106C0C2
:1003E00080E0DF91CF911F910F910895B801CE0168
:1003F0000E943E148823A1F3B801CE010E94D412BA
:10040000882371F3B801CE010E94B013882341F311
:10041000F8018581882361F0C330FCE7DF07E9F04C
:1004200058F4C115ECE7DE07A9F0C130DC47B9F09C
:10043000C8010E946C01D5CFCB358CE7D807A9F055
:10044000CC35ECE7DE0771F0CA35DC4789F70E944E
:100450003E0BEECF0E94D801C3CF0E94460B0E94F4
:10046000DD01BECF0E94340BE3CF0E94420BE0CFF0
:100470000E94F9150E945F0208950E9463020E9483
:10048000FE150895089581E008950895CF93DF93B0
:10049000D82F0E944302C82F882319F08D2F0E9465
:1004A00045028C2FDF91CF9108950895CF93C82FE7
:1004B0000E9442028C2F0E944602CF91089580E054
:1004C0000E94560208950E948C140E9456020895BC
:1004D000CF930E948C14C82F80918C018C1779F0D7
:1004E000C0938C010E94891660938D0170938E01D8
:1004F00080938F01909390018C2F0E945602CF9190
:100500000895ADE0B0E0E7E8F2E00C94B51D48874F
:1005100059876A877B878C879D8791110E946C0A17
:100520001F8286E0FE013896DE01119601900D9241
:100530008A95E1F78D8181110DC029813A814B8126
:100540005C816D817E818F810E949F092D96E2E002
:100550000C94D11DCE0101960E94B1018111EDCF05
:10056000F5CFFC012481213021F4808191810E940A
:100570003A070895662329F00E94C7100E949A1135
:1005800008950E942111FACFCF93C82F8823B9F084
:100590008CEF8C0F813AA8F46C2F80910001909120
:1005A00001010E941F15882329F08C2F0E942C0A1C
:1005B0000E94A50A8C2F0E94240A0E94A50ACF91AE
:1005C000089580E28C0F883048F4C77081E001C044
:1005D000880FCA95EAF70E944F0AEFCFEBE5EC0FC0
:1005E000E33040F4F0E0E75BFE4F808190E00E9452
:1005F000C114E5CFE8E5EC0FEB3150F4F0E0EE0F7D
:10060000FF1FED5EFE4F808191810E94E614D7CFDF
:1006100083E38C0F833198F661E08C2F0E94BA023D
:10062000CECF882381F19CEF980F913A28F40E9455
:100630002C0A0E94A50A089590E2980F983050F471
:10064000877091E001C0990F8A95EAF7892F0E947F
:10065000550AEFCF9BE5980F933028F490E080E0A7
:100660000E94C114089598E5980F9B3128F490E0FA
:1006700080E00E94E614089593E3980F933118F4F4
:1006800060E00E94BA0208951F93CF93DF93182F62
:10069000EB010E94C402209739F4812F0E941103BC
:1006A000DF91CF911F9108958FE99FE00197F1F7B6
:1006B00000C000002197EFCF70E060E0893311F4B3
:1006C00060E570E00E9444030895882321F00E94B1
:1006D0004F0A0E94A50A0895882321F00E94550A16
:1006E0000E94A50A0895B0E0A0E0E9E7F3E00C94C9
:1006F000AE1D6C01D62FC72FFC0115810681029516
:100700000F700E94450AE82E8823E9F0E12E11239C
:10071000D1F08C2F807F803451F080E28D0F8830B3
:10072000F8F0011104C08C2F807E8032C9F08091D6
:100730006C0282FF15C082E00E94080B0E94450AED
:1007400091E0E82EE926BC2EB2949FE0B922FBE0AE
:10075000FB15B8F1EB2DF0E0E65AF14E0C949F1D1D
:10076000E12CF1CF0C2F0F70C07F11F00295007FAC
:10077000112399F0002359F080E28D0F883010F09A
:10078000D11107C0802F0E944F0A0E94A50A8D2F09
:100790005AC0802F0E945F0AF8CF8D2F0E9411034C
:1007A000002379F080E28D0F883010F0D11104C061
:1007B000802F0E94550A03C0802F0E94650A0E9464
:1007C000A50AEB2DE850FF0B349720F40E948C14FF
:1007D0000E945602EE2089F00E94410A80FD0DC061
:1007E000F60115820E943B0A0E944206C6010E9441
:1007F00080050E943B0A0E945206CDB7DEB7E9E0B1
:100800000C94CA1D2C2F2F70F22EC07FC03219F00D
:10081000F29480EFF822DD2341F0D130D1F11123A1
:1008200009F444C00023F1F0B2CF80916C0282FD44
:1008300015C0112359F0FF2029F08F2D0E944F0A77
:100840000E94A50A80E00E94C402BBCF80E00E9403
:100850001103FF2009F4B5CF8F2DABCF112369F021
:10086000011104C08F2D0E946503ABCF013009F048
:10087000A8CF8F2D0E94830AA4CF0111A2CF8F2D64
:100880000E946C038F2D0E948F0A8F2D0E94730A85
:1008900098CF112321F0063008F093CFE3CF053035
:1008A00008F08FCF8F2D0E946C038BCF0023D1F3E4
:1008B000D93349F43FEF87EE93E0315080409040C8
:1008C000E1F700C000008D2F0E9411037ACF8C2F1A
:1008D00086958695837069F0813009F072CF8D2FEF
:1008E0009C2F9370111102C080E090E00E94E614EA
:1008F00068CF8D2F9C2F9370111102C080E090E083
:100900000E94C1145ECF612F8D2F0E94BA0259CF71
:100910008C2F8370A1F5111154CF4D2F4295469520
:100920004770440F440F2D2F2F7030E0042E02C06B
:10093000220F331F0A94E2F790E080E0D4FF09C051
:100940008FE090E002C0880F991F4A95E2F78095EA
:100950009095C695C695C370822B932BC23049F0F3
:1009600058F4C13019F00E9412062BCF0E940906DC
:1009700028CF0E941B0625CF0E94060622CF86950F
:10098000112311F08C2F8170882309F41ACF4D2F79
:10099000429546954770440F440F2D2F2F7030E03D
:1009A000042E02C0220F331F0A94E2F790E080E089
:1009B000D4FF09C08FE090E002C0880F991F4A95CC
:1009C000E2F780959095C695C695C370822B932BC0
:1009D000C23049F058F4C13019F00E947D06F1CEC2
:1009E0000E947406EECE0E948606EBCE0E942A0676
:1009F000E8CECF70112329F08C2F0E9442068D2F54
:100A000032CF8D2F0E946C038C2F0E945206D9CEBC
:100A1000D23F41F160F4D03FB9F0D13F81F01123D2
:100A200009F446C00111B3CE8C2F8F711FC0D33F84
:100A300001F1D43FA1F780916C0282FD24C08C2F7C
:100A40008F71112311F312C0112341F0053008F00A
:100A5000B8CE8C2F8F710E946406B3CE063008F09A
:100A6000B0CEF7CF8C2F8F711111CFCF0E944206DD
:100A7000A8CE112329F08C2F8F710E943606A1CEAB
:100A80000E9431069ECE112349F0CF718C2F0E9417
:100A9000420663E08C2F0E94EA0A93CE81E00E9416
:100AA000080B023008F48DCE82E00E94080B89CE3C
:100AB000002359F0D93309F006CFEFEFF7EE23E02A
:100AC000E150F0402040E1F7FCCE8C2F8F719DCF9C
:100AD0000F931F93CF93DF93EC01688179818D8110
:100AE0000E9445078C010E948F060E940506B801EE
:100AF000CE010E947303DF91CF911F910F91089552
:100B0000CF93DF93EC018C81882399F0CE010E9472
:100B1000E201811111C00E94450A882351F08D81A4
:100B2000882339F080916C0282FF03C082E00E942A
:100B3000080BDF91CF910895CE010E946805CE0188
:100B40000E94BD01F6CF90E080E00E94C11490E0C9
:100B500080E00E94E6140E946C0A0E94A50A0E948E
:100B6000B6110E949A1108950E94340A0E94A305AA
:100B700008950E945C0A0E94B405089592959F70A2
:100B8000963091F058F4925F9F70923058F4803F05
:100B900019F030F4883E30F481E008959A5FF4CF84
:100BA000843FD1F380E00895883EB0F3813FD1F7D0
:100BB000F3CFFC012481222339F0808191810E94AE
:100BC0003A070E94BE05089580E00895A6E0B0E0CF
:100BD000ECEEF5E00C94B51D2696E2E00C94D11DE8
:100BE000A7E0B0E0E6EFF5E00C94B51D2796E2E053
:100BF0000C94D11D08950E94FA0508950E94FB05EA
:100C00009093990180939801089508950E94FE059C
:100C100008952091980130919901822B932B0E9485
:100C2000FE05089520919801309199018223932324
:100C30000E94FE0508952091980130919901822724
:100C400093270E94FE0508950E94FA0508950E94C8
:100C5000240608950E942706909397018093960199
:100C6000089590E080E00E942A06089521E030E097
:100C7000A90102C0440F551F8A95E2F7CA010E94DC
:100C80002A06089521E030E002C0220F331F8A9522
:100C9000E2F78091960190919701822B932B0E940D
:100CA0002A06089521E030E002C0220F331F8A9502
:100CB000E2F72095309580919601909197018223DB
:100CC00093230E942A06089521E030E002C0220FFB
:100CD000331F8A95E2F780919601909197018227C0
:100CE00093270E942A06089520919601309197013A
:100CF000822B932B0E942A06089520919601309111
:100D00009701822393230E942A0608952091960139
:100D100030919701822793270E942A06089508950B
:100D2000262F277091E001C0990F2A95EAF723E05A
:100D3000769567952A95E1F7660F771F660F771FFF
:100D4000FA01E60FF71F50E040E0682F70E0819154
:100D5000DF0111979B01042E02C0369527950A9456
:100D6000E2F7217021952827292328272C934F5F0C
:100D70005F4F4430510559F70895A82FA77023E01D
:100D8000969587952A95E1F7880F991F880F991FE7
:100D9000FB01E80FF91F50E040E080E0219130E0D6
:100DA0000A2E02C0369527950A94E2F72170332760
:100DB000042E01C0220F0A94EAF7822B4F5F5F4F87
:100DC0004430510559F70895262F923070F483303E
:100DD00060F4682F70E083E0989F600D711D11240E
:100DE00042E951E0822F0E9490060895292F923007
:100DF00068F4833058F490E062E971E033E0239FB7
:100E0000800D911D11240E94BD06089580E0089573
:100E1000B0E0A0E0EEE0F7E00C94AE1D7C010091A4
:100E20009601109197018091980190919901082B5A
:100E3000192BCFE0D0E0CC24C394D12CBC2EC6011A
:100E40000C2E02C0880F991F0A94E2F78023912389
:100E5000892B49F4219790F7B12C8B2DCDB7DEB7B4
:100E6000E9E00C94CA1DB7018C2F0E94EC0D01978C
:100E700089F3F3CFCF93DF93EC010E940807BE0103
:100E80000E94EC0DDF91CF9108951F93CF93DF93D4
:100E9000EB0190919101992339F0CB010E943A071F
:100EA000DF91CF911F910895882369F0CB010E94B3
:100EB0000807182F682FCE010E94E406BE01812F7B
:100EC0000E94EC0DEDCFCB010E94F606182FF6CF55
:100ED0001F93CF93DF93C0919A0117E080919B01FC
:100EE0008C1304C0DF91CF911F910895D0E01C9F17
:100EF000F0011D9FF00D1124E456FE4F2081318139
:100F0000428153816481758186810E94F00521961A
:100F1000C770E4CF2091D4013091D5014091D60122
:100F20005091D7016091D8017091D9018091DA0177
:100F30000E94F0050895CF93DF938091DA01807FBE
:100F400009F04DC08091D901882309F448C0E0918F
:100F50009A0150919B01C091D501D091D40160912B
:100F6000D6017091D70147E05E17C9F18E2F90E04E
:100F7000E49FF0011124E456FE4F2481222391F1D5
:100F8000489FF001499FF00D1124DF01A456BE4F88
:100F900011962C9111972C1325C02C912D1322C042
:100FA00015962C91159721111DC012962D913C91EB
:100FB000261B370B283C3105A8F48091DA018F708D
:100FC00080618093DA01EE55FE4F80818F708061E1
:100FD000808384ED91E00E9480050E946807DF9184
:100FE000CF910895FC013196E770BECF482F209134
:100FF0009A0190919B0157E0291302C080E0089567
:1010000030E0529FF001539FF00D1124E456FE4F43
:101010008181681306C08081481303C085818111D6
:10102000EECF2F5F3F4F2770E7CFA4E1B0E0EBE1B9
:10103000F8E00C94AB1D8C0186E0F801DE011F96F0
:1010400001900D928A95E1F7F8018481E58094ED95
:10105000A92E91E0B92E9091D80191111FC088233B
:10106000D1F0EE20A9F0C8010E94D905F82E8823FE
:1010700079F087E0F801D50101900D928A95E1F7AA
:10108000C5010E94B1020E949B070E948A075FC0AF
:10109000C8010E948005FF24F39459C0C080D1800C
:1010A00082809380F090D9012091D6013091D701B0
:1010B000A401421B530BFF2009F4F9C0483C510521
:1010C00008F0A7C0882309F442C09091D50180910F
:1010D000DA01282F207F09F05CC09D1116C0909185
:1010E000D401C91212C0E1104EC08F70806180938C
:1010F000DA010E948A0784ED91E00E9480058091C8
:10110000DA01F8018683F12C22C0E1103CC06D2D7C
:101110008C2D0E94F6076D2D8C2D0E94F607E82E6F
:101120008111F1CFCF86D88A8F8598890E943A079E
:10113000292F22952F70243078F49F702230A8F048
:101140009923B9F0F8019681907F99F4FE2C8F2DA8
:101150006496ECE00C94C71D2A5F2F70223068F073
:10116000C8010E948005EF2CF1CF992311F088234C
:1011700069F3805E883050F3F3CF803F38F3815FAE
:10118000833070F7E3CF8091DA0181608093DA01D8
:10119000BACF9D1113C09091D401C9120FC0E110B4
:1011A0000DC08683C8010E94800587E0F801A4ED88
:1011B000B1E001900D928A95E1F767CFC8010E94D6
:1011C000D905882309F464CFEE2009F461CF80911A
:1011D000DA01803288F02091D4013091D50139872D
:1011E00028879B868A869091D8019C871D868E874A
:1011F000CE0108960E94800587E0F801A4EDB1E0D9
:1012000001900D928A95E1F70E949B070E948A0740
:1012100042CF9091DA01292F207FA1F4682D9A8A7C
:10122000898AA6017A899E2D0E94E60584ED91E0C7
:101230000E94800587E0F50111928A95E9F70E94E6
:101240008A0761CF882309F482CF8091D5018D115F
:1012500010C08091D401C8120CC0E1100AC096835E
:10126000C8010E94800587E0F50111928A95E9F78F
:101270006ECFC8010E94D905882309F409CFEE205A
:1012800009F406CF8091DA01803208F4B5CF2091BD
:10129000D4013091D5013A8329839C828B8290912D
:1012A000D8019D831E828F83CE010196A3CF483C37
:1012B0005105B8F5882309F4EECEFE2CEE2009F492
:1012C000E7CE8091D5018D111EC08091D401C81246
:1012D0001AC08091DA0180FD0DC0982F907F51F0E7
:1012E0008683903F09F45ECF982F907F905F8F7038
:1012F000892B57CF87E0F801A4EDB1E001900D9262
:101300008A95E1F724CFC8010E94D905811174CFD5
:101310008091DA0181608093DA01C8010E94800522
:1013200016CF682D9A8A898AA6017A899E2D0E94F5
:10133000E60587E0F50111928A95E9F7A6CEAEE0C1
:10134000B0E0E5EAF9E00C94B41D288739874A87B4
:101350005B876C877D878E87CE0108960E94150873
:101360008823B1F06C85662341F0288539854A854C
:101370005B857D858E850E94F00517E080919A013E
:1013800090919B0189133DC02E96E3E00C94D01DF3
:1013900087E0FE013896DE01119601900D928A9544
:1013A000E1F78C85882349F320919B0130E0C90146
:1013B00001968770992740919A014817190699F06C
:1013C00097E0929FD001939FB00D1124A456BE4F79
:1013D000FE01319601900D929A95E1F780939B0161
:1013E0000E946807CACF0E94B90510929B01109213
:1013F0009A0187E0E4EDF1E0DF011D928A95E9F7BB
:10140000BCCF819FC001112484569E4F0E941508B5
:10141000882309F4B9CFE0919A011E9FF0011124AD
:10142000E456FE4F20813181428153816481758170
:1014300086810E94F00580919A0190E00196877064
:10144000992780939A019ACF682F809100019091FB
:1014500001010E949F150895682F809100019091CD
:1014600001010E94AD150895809100019091010144
:101470000E94BB1508958091FB01869586958695FF
:1014800008958091FB01877008959091FB019770FA
:1014900081E009F480E0089580911F020895909101
:1014A0001F02892B80931F020895809590911F023F
:1014B000982390931F02089510921F02089590910F
:1014C0001E02892B80931E020895809590911E0222
:1014D000982390931E02089510921E020895089575
:1014E0000E946F0A08959091FC01292F282331F062
:1014F000809589238093FC010E94700A08950895C5
:101500000E947F0A08959091FD01292F2823281712
:1015100029F0982B9093FD010E94800A08959091E4
:10152000FD01292F282331F0809589238093FD0127
:101530000E94800A08958091FD01882329F010926D
:10154000FD0180E00E94800A0895CF93DF93E0912F
:101550000001F091010180911F028083E091000160
:10156000F0910101808190911E02892B80839091DE
:10157000FD01992381F0E0910001F091010180814A
:10158000892B808380910001909101010E940B15AD
:1015900081110E949B0AC0910001D091010140E29B
:1015A00050E06BED71E0CE010E94F01D892B59F0E7
:1015B00080E2FE01ABEDB1E001900D928A95E1F77A
:1015C000CE010E949914DF91CF91089508950E9451
:1015D000E60A089590916C0292FF11C098E0899FED
:1015E00090011124622B6093FB010E9442068091BE
:1015F000FB018695869586950E94E70A08950E94CC
:10160000420608951092FB0180E00E94E70A0895C7
:101610009091FB01809589238093FB01282F2770EF
:1016200069F4891759F090916C0292FF07C0869572
:10163000869586950E9452060E94020B089590910D
:101640006C0292FB222720F9281769F080FB92F99F
:1016500090936C0280916B0290916C020E94670BD8
:1016600082E00E94080B089580916C0282FB88271B
:1016700080F991E089270E941F0B089581E00E9464
:101680001F0B089580E00E941F0B08956FEF7FEFFE
:1016900090E080E00E94421E089590E080E00E9469
:1016A0000E1E21E0863E9E4F09F020E0822F089515
:1016B00082E090E00E94061E089583E090E00E9480
:1016C000061E089584E090E00E940E1E0895BC015D
:1016D00084E090E00E94421E0895AB01BC018FE0BF
:1016E00090E00E94361E0895AB01BC0183E190E0BA
:1016F0000E94361E089560E070E0CB010E94740BDA
:10170000089560E070E0CB010E946D0B0E947B0B9E
:101710000895A8E0B0E0EFE8FBE00C94B51D66EE9C
:101720007EEF90E080E00E94421E60E082E090E068
:101730000E94241E60E083E090E00E94241E10922C
:1017400099011092980160E074E184E090E00E94B9
:10175000421E60E086E090E00E94241E6FEF87E06A
:1017600090E00E94241E40E050E0BA0188E090E042
:101770000E94361E60E084E290E00E94241E60E039
:1017800087E190E00E94241E60E08CE090E00E94DF
:10179000241E60E08DE090E00E94241E19821A82CF
:1017A0001B821C821D821E821F82188648E050E028
:1017B00068E170E0CE0101960E94141E40E050E006
:1017C000BA0180E290E00E94361E0E94810B2896AA
:1017D000E2E00C94D11D0E94890B0895682F8EE0E1
:1017E00090E00E94241E0895A6E0B0E0EAEFFBE03E
:1017F0000C94B31D0E947D168C0180912002909163
:1018000021028017910781F019821A820E947D16A9
:10181000682F49815A81792F80E090E00E948102EF
:1018200010932102009320022696E4E00C94CF1D31
:101830000E948916609328027093290280932A02DD
:1018400090932B02609324027093250280932602CA
:10185000909327020895089508950E942C0C0895EE
:1018600008950E94300C089581E0089586ED9EE071
:101870000E9482140E942B0C0E942D0C08950E943D
:10188000340C08950E943F0C0895089508950E9415
:10189000450C0E94460C08950E94F50E0E945502C8
:1018A00008950E9474160E94B10F0E944C0C0E9471
:1018B000310C0895A6E0B0E0E0E6FCE00C94AC1D2D
:1018C0000E94340C81110AC00E94F40B0E94D811AE
:1018D0000E9468022696EBE00C94C81D0E94C10F7E
:1018E0001091220280E00E941B0F181307C0109174
:1018F000230281E00E941B0F181731F380912C0204
:1019000081FD0E94210F0E94420CC82E82E2A82E67
:1019100082E0B82E10E099249394812F0E941B0F2F
:10192000082FF50181915F01081729F1D02ED826E3
:10193000F12CEE24E3948E2D8D21A9F0CC2099F08A
:10194000F9821A830E947D169C838B839D8291E08D
:101950008E2D802309F490E049815A816B817C812E
:101960008D810E948102F394EE0CF3E0FF12E3CF2D
:10197000F50131970083113019F40E94180CA6CF9D
:1019800011E0CBCF1F93CF93DF930E94F10DEC01B9
:10199000C11580E5D807F0F5C11580E4D80708F037
:1019A0009CC0C03ED10520F5CD3CD10508F082C0D9
:1019B000C83AD10578F4C53AD10508F073C0C130F2
:1019C000D10519F1209709F1C430D105F0F4D0E028
:1019D000C0E01BC0C33CD105D0F7C85AD0E0CC0F43
:1019E000DD1FC45BDE4F0990D881C02DD4640DC0CB
:1019F000C11580E2D80708F0D1C0C11581E0D80731
:101A000008F05AC0C83ED10510F7CE01DF91CF9142
:101A10001F910895C03682E5D80718F5C03482E5D5
:101A2000D80708F06BC0C03282E5D80708F05FC065
:101A3000C11582E5D80708F497C02C2F2695269566
:101A400080E2289F900111248C2F8370C1E0D0E0A8
:101A500002C0CC0FDD1F8A95E2F7C22BD32BDD68C5
:101A6000D4CFC03A82E5D80760F4C03882E5D80701
:101A700008F459C0CF71D0E0DC2FCC27C46FD06AF6
:101A8000C4CFC03C82E5D80708F462C0C03E82E5FE
:101A9000D80708F09CCFDC2FCC27CC27DF71C06F94
:101AA000D06AB3CFC55AD0E0CE57DE4FC881D0E060
:101AB000D064ABCFD065A9CF8D2F0E94930E182F85
:101AC000CE0199270E94F10DC12FD0E0DC2FCC2749
:101AD000CC27DF71C82BD92B98CFCE0199270E9434
:101AE000F10DCC27DF70C82BD92BD06A8ECFCF71E8
:101AF000D0E0DC2FCC27C16FD06A87CF2C2F269562
:101B00002695277080E2289F900111248C2F8370E6
:101B1000C1E0D0E002C0CC0FDD1F8A95E2F7C22BF6
:101B2000D32BDC6872CF2C2F26952695277080E268
:101B3000289F900111248C2F8370C1E0D0E002C057
:101B4000CC0FDD1F8A95E2F7C22BD32BDA685DCF6D
:101B50008C2F8F710E94930EC82FD0E0DC2FCC27E2
:101B6000CC27DF71D06251CF8C2F8F710E94930EE2
:101B700055E0D695C7955A95E1F7CF70D0E0DC2FA8
:101B8000CC27282F30E084FF05C044E0220F331F0C
:101B90004A95E1F7C22BD32BD06937CF8D2F8F71A8
:101BA0000E94930E182FCE0199270E94F10DC12F8C
:101BB000D0E0DC2FCC27CC27DF71C82BD92BD2CF9C
:101BC000462F723030F4633020F4672F0E94640196
:101BD000089590E080E008950E94E00D0E94C20CFC
:101BE000089582389105B9F1B0F48133910509F473
:101BF0007DC048F48932910509F46DC08A3291059F
:101C000009F47BC008958533910509F45FC08933D9
:101C1000910509F10895833E9105D9F138F4803E8C
:101C2000910529F1823E910579F10895863E91054D
:101C3000D9F1873E910509F43EC0843E910541F5F6
:101C400020916C0221FF24C080916B0284FD19C099
:101C500087EE90E0089520916B02237009F05AC03E
:101C600020916C0223FF14C089E290E00895209136
:101C70006B0220FD38C030916C0230FF09C024FF98
:101C800043C090E080E0089520916B0222FDF7CFE1
:101C9000089520916B0222FD3AC030916C0230FD14
:101CA00039C024FFF5CFEDCF20916B0223FFF0CF99
:101CB00024FDE7CFCDCF20916B0223FD2EC03091C4
:101CC0006C0231FFEECF84EE90E0089520916B021C
:101CD00025FFDECFC9CF20916B0225FD21C02091C9
:101CE0006C0223FFD5CF89E390E0D2CF20916B0225
:101CF00026FFCECF8AE290E0089520916B0226FF66
:101D0000C7CF81E390E0089583EE90E0089582EEDE
:101D100090E0089580EE90E0089586EE90E00895BA
:101D200085E390E0089590916B0292FF06C0282F02
:101D300028712830F9F4877F846093FF06C0282F2C
:101D400028712831F1F4877E846120916C0220FF94
:101D500006C0382F38713830D9F4877F816021FF71
:101D600006C0282F28712831D1F4877E816194FD27
:101D7000877E0895282F24712430F9F68B7F8860A0
:101D8000DCCF282F2471243101F78B7E8861DDCFD1
:101D9000382F3171313019F78E7F8860E0CF282FCE
:101DA0002171213121F78E7E8861E1CF80E0089595
:101DB0000E94460B08950E94C10F2FEF86E791E025
:101DC000215080409040E1F700C000000E94C10F08
:101DD00080E00E941B0F80FF04C00E94D80E0E946A
:101DE000C81608950E94DB0E08950E944D0B8111C4
:101DF00002C00E94EB0B0E94580B80932C020E94A1
:101E0000620B90936C0280936B020E94F20E0E9410
:101E10005D0B90E00E9406068091960190919701DB
:101E20000E942706089508950E94130F08950895AB
:101E30000E94170F0895E82FF0E0E159FD4F8081CF
:101E40000895089580EA8A95F1F7089500C00895ED
:101E50000E94220F0895F894E82FE295EF70F0E0C9
:101E600031A1282F2F7081E090E001C0880F2A95C2
:101E7000EAF7982F9095932391A392A1892B82A39F
:101E80007894089587E90E942B0F86E30E942B0F18
:101E900085E30E942B0F84E30E942B0F86E90E94AA
:101EA0002B0F0895B0E0A0E0E8E5FFE00C94AF1D33
:101EB000EC01D62E062F10E0C80188579E4F7C01FA
:101EC000FC0180818F3F09F445C0F894E82FE2952A
:101ED000EF70F0E091A18F7021E030E001C0220F9F
:101EE0008A95EAF7892F822B81A382A12095282346
:101EF00022A378940E94260FE5E8F1E048E851E03B
:101F000031E0C12C21912F3F51F1A22FA295AF704A
:101F1000B0E090968C9190E02F7002C095958795D7
:101F20002A95E2F780FD1BC0832FC82A330F4E1776
:101F30005F0741F7F70180818F3F11F00E942B0F5F
:101F400061E0C11001C060E08D2D0E94280FC00F1C
:101F5000D11FC882CDB7DEB7E8E00C94CB1D80E07E
:101F6000E4CF0E94420F1092700210926F02109202
:101F70006E0210926D0282E00E94F70F0E94140F11
:101F80000895A2E0B0E0E7ECFFE00C94B41D1A82E3
:101F9000198260E0CE0101960E94520F61E0CE01ED
:101FA00001960E94520F42E050E0BE016F5F7F4FEA
:101FB0008DE692E00E94F01D21E0009709F420E0F8
:101FC000892B31F089819A8190936E0280936D0202
:101FD00042E06FE672E08DE692E00E94F80F182F63
:101FE0000E94180F812F2296E3E00C94D01D0895D3
:101FF000CF92DF92EF92FF920F931F93CF936C01DA
:102000007B01042F222349F081E080932F020E945C
:102010007D1690932E0280932D02C0912F02C11144
:102020000AC0C0E08C2FCF911F910F91FF90EF90CD
:10203000DF90CF90089580912D0290912E020E9402
:102040009516059770F310E0A801B601C7010E942C
:10205000F01D892B41F0A801B601C7010E94FD1DAA
:1020600010922F02DFCFC0E0FBCF0E9461180E94C8
:10207000510C0E946E1808950E9473180E945A0C09
:102080000E948D1808950E9416160E9447180E94FB
:10209000360C0E9435100E943C100E94470CFBCF6A
:1020A0008091360280FF0DC06091070170E0660FDD
:1020B000771F6038710570F56115710569F1862F1C
:1020C000089581FF07C06091070184E0689FB00117
:1020D0001124EFCF6091070182FD0AC08091350283
:1020E0008823A9F02091060160910701821710F062
:1020F00088E0ECCF869FC001112433E0880F991F40
:102100003A95E1F7622F70E00E948B1DD2CF68E014
:1021100070E0D5CF8FE7089581E008958091360271
:1021200080FF0CC06091030170E07595679575950F
:1021300067956115710549F1862F089581FF06C0E5
:102140006091030170E075956795F3CF609103018D
:1021500082FD0BC0909134029923A1F0609102019D
:1021600080910301961738F0682F70E06038710590
:1021700000F38FE70895899FC001112470E00E9449
:102180008B1DF4CF61E070E0D7CF81E008958D3CE6
:1021900031F40E945010819580933A0208958E3C4C
:1021A00019F40E945010F8CF8F3C31F40E94501067
:1021B0008195809339020895803D19F40E94501052
:1021C000F8CF893D29F40E948E1080933B02089538
:1021D0008A3D21F40E948E108195F7CF8B3D31F41A
:1021E0000E948E10819580933C0208958C3D19F4D5
:1021F0000E948E10F8CF9FE2980F983070F4815DA6
:10220000990B21E030E001C0220F8A95EAF7809116
:102210003802822B8093380208958D3D31F48091ED
:10222000360281608093360208958E3D21F48091BC
:1022300036028260F7CF8F3DB9F780913602846015
:10224000F1CF409139028D3C59F480913A0287FFD9
:102250000DC010923A0241110BC01092350208C015
:102260008E3C81F480913A0218169CF3442381F04D
:1022700080913B0290913C02892B09F05AC0109248
:10228000340208958F3C49F447FFF0CF1092390291
:1022900080913A028111ECCFE0CF803D19F4141601
:1022A000ACF3E4CF90913B02893D29F41916F4F682
:1022B00010923B02DBCF8A3D19F497FFD7CFF8CFBE
:1022C00090913C028B3D29F497FFD0CF10923C02B5
:1022D000CDCF8C3D19F41916CCF3C8CF9FE2980FDF
:1022E000983090F4815D990B21E030E0B90102C093
:1022F000660F771F8A95E2F7CB018095909138029F
:10230000892380933802B2CF8D3D31F4809136021B
:102310008E7F80933602AACF8E3D21F480913602C3
:102320008D7FF7CF8F3D09F0A1CF809136028B7F53
:10233000F0CF08950E947D169C0190913902809102
:102340003A02982B21F0309333022093320290917D
:102350003B0280913C02982B21F030933102209374
:10236000300287E392E00E94B314089586E0E7E329
:10237000F2E0DF011D928A95E9F710923502109282
:102380003402109236020895FC01828181110EC040
:10239000838181110BC08481811108C091E0858106
:1023A000811101C090E0892F8170089581E0FCCFF8
:1023B000A6E0B0E0EEEDF1E10C94B41D86E0E7E3B9
:1023C000F2E0DE01119601900D928A95E1F71092EC
:1023D000390210923A0210923B0210923C028B8119
:1023E0009C81892B89F080913202909133020E9466
:1023F0009516AC01909135029923C9F1809108019D
:102400008417150608F440C08D819E81892B91F0B8
:1024100080913002909131020E949516AC0190910A
:102420003402992309F471C08091040184171506C0
:1024300008F479C0BE016F5F7F4F87E392E00E948E
:10244000CD15811105C087E392E00E94C41181116E
:102450000E949A1186E0FE013196A7E3B2E0019056
:102460000D928A95E1F72696E3E00C94D01D209119
:1024700009018AE0289F900111242417350720F6CE
:102480009F5F9093350202C09F3FD1F71B811123BC
:1024900059F00E9450109FEF11160CF491E0899FA3
:1024A000802D1124809339021C81112359F00E9440
:1024B00050109FEF11160CF491E0899F802D11248C
:1024C00080933A0230913902332309F49DCF209151
:1024D0003A02222309F498CF45EB3403C0011124BA
:1024E000992359F09093390245EB2403900111246C
:1024F000332339F030933A0287CF81E08093390259
:10250000F3CF81E080933A027FCF209105018AE0EA
:10251000289F900111242417350708F08BCF9F5F67
:102520009093340202C09F3FD1F71D81112359F0CF
:102530000E948E109FEF11160CF491E0899F802D60
:10254000112480933B021E81112359F00E948E10AA
:102550009FEF11160CF491E0899F802D1124809338
:102560003C0230913B02332309F464CF20913C02BA
:10257000222309F45FCF45EB3403C00111249923D2
:1025800059F090933B0245EB24039001112433232F
:1025900039F030933C024ECF81E080933B02F3CF81
:1025A00081E080933C0246CFCF93DF93EC01FB01A7
:1025B0008581882309F4D2C09E013057233231052A
:1025C00008F0B2C00E94620B90936C0280936B0281
:1025D000FE01E150F047E232F10520F4EA59F14EF4
:1025E0000C949F1D80916B02816080936B0293C05D
:1025F00080916C02886080936C028DC080916B0228
:102600008260F3CF80916B028460EFCF80916B0288
:102610008860EBCF80916C028160EDCF80916C027D
:102620008260E9CF80916B028061DFCF80916B0285
:102630008062DBCF80916B028064D7CF0E94B905A6
:1026400080916B028068D1CF80916B028C60CDCF7E
:1026500080916C028360CFCF80916B028E7FC5CF5B
:1026600080916C02877FC7CF80916B028D7FBDCF39
:1026700080916B028B7FB9CF80916B02877FB5CF42
:1026800080916C028E7FB7CF80916C028D7FB3CF2B
:1026900080916B028F7EA9CF80916B028F7DA5CF39
:1026A00080916B028F7BA1CF0E94B90580916B0254
:1026B0008F779BCF80916B02837F97CF80916C0245
:1026C0008C7F99CF80916B0282FB992790F921E052
:1026D000922790FB82F990FB83F987CF80916C025F
:1026E000982F909591708E7F892B90FB81F983CFE5
:1026F00090916B02892F8F7B96FF806476CF0E942A
:10270000B90590916B02892F97FB87F980586DCF9F
:1027100081E00E94EE0B80916B0290916C020E940E
:10272000670B0E94B90580E0DF91CF91089580E0AA
:10273000F0CF90916B02892F8F7E94FF806155CFEF
:1027400090916B02892F8E7F90FF81604ECF909188
:102750006C02892F877F93FF88604DCF81E0E4CFA3
:10276000CF93DF93EB0186319C4711F50E944C0A11
:102770009D81992399F08A7A91E009F490E09093F1
:102780003D02811109C089E20E94240A0E94A50A23
:1027900080E0DF91CF91089585E3F6CF80913D02EF
:1027A000811104C089E20E942C0AF0CF85E3FBCF9F
:1027B00081E0EFCF0F931F93CF93DF93C42FD22FDE
:1027C000FC0185818823C9F0409340020E947D1658
:1027D00090933F0280933E0280E28C0F883040F459
:1027E000C77081E001C0880FCA95EAF70E946503AF
:1027F000DF91CF911F910F91089510914002141312
:1028000032C080913E0290913F020E949516883C12
:10281000910548F5C0E2CD0F1D17B9F080E2810F98
:10282000883040F4177081E001C0880F1A95EAF7EC
:102830000E946C03C83048F481E09D2F977001C05E
:10284000880F9A95EAF70E946503802F0E945C0327
:10285000C83070F6D77081E001C0880FDA95EAF7CA
:102860000E946C03C5CF80E28C0F883008F6C770D9
:1028700081E001C0880FCA95EAF7F2CF0F93DB0120
:1028800088519C4787309105A0F5FC01E857F14E2F
:102890000C949F1D06E221EE41EE6AE17CE7CD013A
:1028A0000E94DA1380E00F91089507E225EE45EECD
:1028B0006BE17CE7F4CF06E221EE40EE68E17CE7D5
:1028C000EECF07E225EE44EE69E17CE7E8CF06E2D1
:1028D00021EE42EE6CE17CE7E2CF07E225EE46EE28
:1028E0006DE17CE7DCCF08E221E045EE6EE17CE7BC
:1028F000D6CF15968C91882319F010924002D3CF31
:1029000081E0D1CF90938B0180938A0108959093B9
:102910004602809345020895E0914502F0914602F7
:10292000309729F00190F081E02D0995089580E01D
:102930000895E0914502F0914602309799F0209178
:102940001201222359F020916B0227FF07C0DC01FE
:102950002C9111962C93119726E02C930280F381F1
:10296000E02D09950895E0914502F09146023097D7
:1029700039F022E0DC012C930480F581E02D0995EB
:102980000895A3E0B0E0E7ECF4E10C94B51D2091CC
:1029900043023091440228173907A1F09093440272
:1029A00080934302E0914502F0914602309751F046
:1029B00023E029839B838A830680F781E02DCE0163
:1029C000019609952396E2E00C94D11DA3E0B0E0B6
:1029D000ECEEF4E10C94B51D2091410230914202DD
:1029E00028173907A1F09093420280934102E091A9
:1029F0004502F0914602309751F024E029839B83F1
:102A00008A830680F781E02DCE01019609952396F1
:102A1000E2E00C94D11DFC013296809112018823D2
:102A200021F080916B029EE187FF96E080E091505B
:102A300008F4089521912223D1F38F5FF8CF662304
:102A400001F1209112012223F1F020916B0227FF66
:102A50001AC0462F4695469546954E3190F46770BC
:102A600021E030E002C0220F331F6A95E2F7840FA5
:102A7000911DFC01828190E02823392381E0232BE2
:102A800069F480E00895FC0132960896219126179A
:102A900021F0E817F907D1F7F4CF81E008959C0100
:102AA000FC0132969FEF80E04191461751F09F3F25
:102AB00019F4411101C0982F8F5F8630A9F79F3F0D
:102AC00009F40895290F311D97FD3A95F9016283A4
:102AD0000895FC01329608962191261303C0DF0168
:102AE00011971C92E817F907B9F70895E62FE695B4
:102AF000E695E695EE3168F4E80FF92FF11D677061
:102B000021E030E001C0220F6A95EAF78281822B32
:102B100082830895E62FE695E695E695EE3170F40A
:102B2000E80FF92FF11D677021E030E001C0220F9E
:102B30006A95EAF7209582812823228308952091BF
:102B40001201222339F020916B0227FF03C00E945B
:102B5000761508950E944F150895209112012223A1
:102B600039F020916B0227FF03C00E948A15089557
:102B70000E9469150895FC01329680911201882304
:102B800051F080916B0287FF06C08EE1DF011D923C
:102B90008A95E9F7089586E0F9CF46E050E00E9473
:102BA000F01D21E0892B09F420E0822F089508957B
:102BB0000E94D7150895811106C081E080934702D5
:102BC0000E94D815089582E0F9CF83E080934702F0
:102BD0000E94D81508950E94DB15089581E0809326
:102BE00047020E94D81508950E94EE150895089591
:102BF00008950E94F8150895089508950E94F71504
:102C000008950E94FC150E94C10F0E94FD1580E0EE
:102C10000E941B0F91E0811107C081E00E941B0FF1
:102C200091E0811101C090E0892F089585B78068F7
:102C300085BF85B7806885BF08951F921FB61F9214
:102C400011248F939F93AF93BF938091480281117A
:102C500013C08091710290917202A0917302B091A1
:102C600074024196A11DB11D80937102909372026E
:102C7000A0937302B0937402BF91AF919F918F9113
:102C80001F901FBE1F90189580917902843031F1FA
:102C90000E9438021092480288E190E020E40FB6CA
:102CA000F894A895809360000FBE2093600083B7CE
:102CB000817F846083BF83B7816083BF7894889568
:102CC00083B78E7F83BF0FB6F894A895809160007C
:102CD000886180936000109260000FBE08950E948A
:102CE000B9050E943D02089582E084BD93E095BD40
:102CF0009AEF97BD80936E0008952FB7F894809156
:102D0000710290917202A0917302B09174022FBF70
:102D100008952FB7F89460917102709172028091BA
:102D20007302909174022FBF08959C014FB7F894DD
:102D30008091710290917202A0917302B09174021D
:102D40004FBF821B930B089578941F921FB61F925A
:102D500011248F939F93AF93BF93809171029091B1
:102D60007202A0917302B09174020196A11DB11D6F
:102D70008093710290937202A0937302B0937402D5
:102D8000BF91AF919F918F911F901FBE1F9018957B
:102D900081E08093E00080E28093D8001092C90027
:102DA0008FE19EE40197F1F700C0000087E090EB0F
:102DB000DC018093820290938302A0938402B093FB
:102DC000850288E19CE00FB6F894A8958093600096
:102DD0000FBE90936000FFCF88E19CE00FB6F8949F
:102DE000A895809360000FBE90936000FFCF809104
:102DF000690208959B01BA01909179029430E9F437
:102E00008F708093E9009FEF8091E800915085FDDD
:102E100006C085ED8A95F1F700009111F5CF8091FC
:102E2000E80085FF0AC050E040E0C9010E94041993
:102E30008091E8008E778093E800089543E050E0A9
:102E4000BC0182E00E94FA16089546E050E0BC0101
:102E500082E00E94FA160895CF93DF93EC018091EF
:102E60001201811111C048E050E0BE0181E00E94D2
:102E7000FA1680E2FE01A9E4B2E001900D928A9573
:102E8000E1F7DF91CF91089580916B0287FF05C034
:102E900040E282E050E0BE01EACF48E081E0FACFB4
:102EA00080917802811109C00E94941A0E94F11A3F
:102EB0008091E20084608093E2000895109278028D
:102EC00008950E94EE1508956091750281E06111E8
:102ED00001C080E00E94E51508959091790281E09B
:102EE000943009F080E0609175020E94EB1508951E
:102EF00042E061EC81E00E94101A42E261EC82E063
:102F00000E94101A9091790281E0943009F080E0DB
:102F1000609175020E94DB15089580917B028330D9
:102F200009F461C030F48130D1F1823009F49EC0DF
:102F300008958A3009F48AC08B3009F46FC0893053
:102F400009F050C080917A02813209F04BC0809123
:102F50007E0290917F02029708F044C08091E800C1
:102F6000877F8093E8008091E80082FF37C09091CE
:102F7000F3008091F200029731F48091F1008130EA
:102F800011F0863021F48091F100809369028091E4
:102F9000E8008B778093E8000E94441A23C0809158
:102FA0007A02813AF9F48091E800877F8093E80003
:102FB00080917E0290917F02892B61F460E289E426
:102FC00092E070E00E9453198091E8008B77809323
:102FD000E800089560E090E080E0F3CF809179020E
:102FE0008111C1CF089580917A02813AD9F78091F9
:102FF0007E0290917F02892BA9F78091E800877F5C
:103000008093E8008091E80080FFFCCF809112015E
:103010008093F1008091E8008E77BCCF80917A0296
:10302000813201F780917E0290917F02892BD1F647
:103030008091E800877F8093E8000E94441A809185
:103040007C02809312010E94B905089580917A0252
:10305000813241F68091E800877F8093E8000E94EA
:10306000441A80917D0280936A02089580917A02C9
:10307000813A09F0B7CF8091E800877F8093E8001C
:103080008091E80080FFFCCF80916A02C1CF84B7B5
:10309000877F84BF0FB6F894A895809160008861FF
:1030A00080936000109260000FBE80E890E00FB641
:1030B000F89480936100909361000FBE0E94F41514
:1030C00008950E94941A0E94F11AE2EEF0E08081C5
:1030D0008460808378940E94701D08958AE091E056
:1030E0000E948714089580917902853031F480918F
:1030F0007902853019F00E946F1608950E944416D7
:1031000080917702882399F30E940116882379F32E
:103110000E94EE180E94B905EACF08959A014091E5
:103120008002509181020E9496180895492F5527D8
:103130004330510519F168F44130510509F444C098
:103140004230510509F445C090E080E050E040E095
:1031500025C04132510549F142325105A9F780E4B9
:1031600090E045EE51E061157105C1F086EB90E00D
:103170004FE251E06130710589F0E6CF9927813047
:10318000910581F0009729F00297F1F6E8EBF0E065
:1031900002C0EEEDF0E0849190E0AF01F9015183BF
:1031A00040830895EEECF0E0F6CF89E090E044EF44
:1031B00050E06115710591F389E090E04DE051E038
:1031C0006130710559F3C0CF82E190E04DE151E0EB
:1031D000E5CF8BE390E042EE50E0E0CF80E189BDA7
:1031E00082E189BD09B400FEFDCF8091D8008F7DBA
:1031F0008093D8008091E00082608093E00080910D
:10320000E00081FDFCCF0895AF92BF92CF92DF9294
:10321000FF920F931F93CF93DF936C01EB018A0111
:103220000E94631AF82E811123C00115110539F08F
:10323000F80180819181C81BD90BC80ED91EB12C11
:10324000A12C2097A9F08091E80085FD22C08091F3
:10325000E8008E778093E80001151105A1F0F801D0
:1032600080819181A80EB91EB182A08285E0F82EDE
:103270008F2DDF91CF911F910F91FF90DF90CF9015
:10328000BF90AF9008950E94631A8823D1F2F82E60
:10329000EFCFF60181916F018093F1002197FFEF4D
:1032A000AF1ABF0ACECFFC018091800290918102BB
:1032B00086179707A0F06115710529F49091E80031
:1032C0009E779093E80090E06115710551F491119B
:1032D00008C08091E80082FF34C080E00895BC01FE
:1032E000F2CF809179028823C1F18530C1F18091BC
:1032F000E80083FD30C08091E80082FDEACF809134
:10330000E80080FFE1CF8091F3002091F200382F98
:103310006115710519F02830310558F091E0283019
:10332000310509F090E02091E8002E772093E80025
:10333000CBCF81918093F100615071092F5F3F4F96
:10334000E7CF80917902882341F0853041F0809168
:10335000E80083FFBECF81E0089582E0089583E016
:103360000895FC0180918002909181028617970751
:10337000A0F06115710529F48091E8008E778093A3
:10338000E80090E06115710551F4911108C0809139
:10339000E80082FF35C080E00895BC01F2CF809143
:1033A00079028823C9F18530C9F18091E80083FD55
:1033B00031C08091E80082FDEACF8091E80080FF73
:1033C000E1CF8091F3002091F200382F6115710553
:1033D00019F02830310558F091E02830310509F016
:1033E00090E08091E8008E778093E800CBCF8491C5
:1033F0008093F1003196615071092F5F3F4FE6CF06
:1034000080917902882341F0853041F08091E80075
:1034100083FFBDCF81E0089582E0089583E00895A1
:10342000982F973028F08F708093E90081E00895FD
:103430009093E900242F762F50E0981731F0709187
:10344000EC002091ED005091F00021FD02C09F5F43
:10345000E8CF3091EB003E7F3093EB003091ED00F0
:103460003D7F3093ED003091EB0031603093EB0005
:103470007093EC002093ED005093F0002091EE004B
:1034800027FDE5CF80E0089580917A0287FF13C081
:103490008091E80082FF06C08091E8008B778093DE
:1034A000E80004C0809179028111F2CF08958091E3
:1034B00079028823D9F38091E80080FFF8CF8091CA
:1034C000E8008E77ECCF2091E4003091E50095E69E
:1034D000A9012091EC00822F817020FF06C080910D
:1034E000E80080FF06C080E008952091E80022FDFA
:1034F0001AC080917902882389F0853089F0809103
:10350000EB0085FD0FC02091E4003091E5004217EB
:103510005307F9F29150E1F684E0089582E00895AE
:1035200083E0089581E008950E94031B0E940B1B15
:10353000E0EEF0E0808181608083E8EDF0E0808162
:103540008F77808319BCA7EDB0E08C918E7F8C9330
:1035500080818F7E80831092780208950F931F934D
:10356000CF93DF930E94031B0E940B1BC8EDD0E09A
:1035700088818F77888388818068888388818F7D20
:10358000888319BC1092790210927502109277020A
:103590001092760200EE10E0F80180818B7F80832C
:1035A00088818160888342E060E080E00E94101A98
:1035B000E1EEF0E080818E7F8083E2EEF0E08081BA
:1035C00081608083808188608083F80180818E7F24
:1035D0008083888180618883DF91CF911F910F91D3
:1035E0000895E8EDF0E080818F7E8083E7EDF0E0E4
:1035F00080818160808384E082BF81E08093780253
:103600000E94AE1A0895E8EDF0E080818E7F8083FD
:103610001092E20008951092DA001092E1000895ED
:103620001F920F920FB60F9211242F933F934F9337
:103630005F936F937F938F939F93AF93BF93EF931A
:10364000FF938091E10082FF0BC08091E20082FF36
:1036500007C08091E1008B7F8093E1000E946F1D85
:103660008091DA0080FF19C08091D80080FF15C0DA
:103670008091DA008E7F8093DA008091D90080FFFC
:1036800096C080E189BD82E189BD09B400FEFDCF0D
:1036900081E0809379020E9450178091E10080FFC1
:1036A00019C08091E20080FF15C08091E2008E7FFA
:1036B0008093E2008091E20080618093E20080913B
:1036C000D80080628093D80019BC85E0809379028D
:1036D0000E9464178091E10084FF2BC08091E2007A
:1036E00084FF27C080E189BD82E189BD89B5982F1B
:1036F000917080FFFBCF8091D8008F7D8093D800A0
:103700008091E1008F7E8093E1008091E2008F7EC6
:103710008093E2008091E20081608093E2008091DA
:103720007502882309F449C084E0809379020E94DD
:103730006D178091E10083FF29C08091E20083FF33
:1037400025C08091E100877F8093E10082E0809333
:103750007902109275028091E1008E7F8093E100E2
:103760008091E2008E7F8093E2008091E200806190
:103770008093E20042E060E080E00E94101A8091B5
:10378000F00088608093F0000E946117FF91EF9134
:10379000BF91AF919F918F917F916F915F914F9169
:1037A0003F912F910F900FBE0F901F90189519BC4D
:1037B000109279020E945E1770CF8091E30087FD1E
:1037C00093E090937902B3CF1F920F920FB60F92AE
:1037D00011242F933F934F935F936F937F938F9316
:1037E0009F93AF93BF93CF93DF93EF93FF93D091CA
:1037F000E900DF708091EC00C82FC17080FDC0E847
:103800001092E9008091F000877F8093F000789417
:103810000E94281C1092E9008091F000886080933B
:10382000F000CD2BCF70C093E900FF91EF91DF91B5
:10383000CF91BF91AF919F918F917F916F915F9148
:103840004F913F912F910F900FBE0F901F901895A1
:10385000AAE2B0E0EEE2FCE10C94B41D8AE792E04B
:103860002091F100FC012193CF01F2E082389F0703
:10387000B9F70E948D178091E80083FF1EC18091E7
:103880007A0290917B029A3008F017C1E92FF0E09C
:10389000E157F14E0C949F1D803899F0823809F061
:1038A0000CC180917E028F70873008F006C1809332
:1038B000E9008091EB0085FB882780F91092E900F0
:1038C00006C080917602909177029111826090916A
:1038D000E800977F9093E8008093F1001092F10048
:1038E0008091E8008E77E5C0882309F4D3C0823048
:1038F00009F0E3C080917C028111D6C080917E02E4
:103900008F702FEF280F263008F0D7C08093E90082
:103910002091EB0020FFC8C0933031F48091EB0080
:1039200080628093EB00C0C09091EB009061909317
:10393000EB0021E030E001C0220F8A95EAF72093E6
:10394000EA001092EA008091EB008860EACF8111D2
:10395000B4C010917C021F778091E3008078812BA6
:103960008093E3008091E800877F8093E8000E94C5
:10397000441A8091E80080FFFCCF8091E3008068CA
:103980008093E30082E0111183E08093790295C077
:103990008058823008F091C080917C0290917D0225
:1039A0008C3D23E09207A1F583E08A838AE2898334
:1039B0004FB7F894DE01139620E03EE051E2E32F8A
:1039C000F0E050935700E49120FF03C0E295EF70C0
:1039D0003F5FEF708E2F90E0EA30C0F0C7968D9376
:1039E0009D932F5F243159F74FBF8091E800877F67
:1039F0008093E8006AE270E0CE0101960E945319BC
:103A00008091E8008B778093E80057C0C096E7CF9D
:103A100060917E0270917F02AE014F5F5F4F0E9406
:103A20008E18BC01892B09F448C09091E800977F5B
:103A30009093E80089819A810E94B119E1CF803882
:103A4000E1F58091E800877F8093E800809175021E
:103A50008093F10045CF811130C090917C0292306B
:103A600060F58091E800877F8093E800909375026D
:103A70000E94441A80917502882311F084E005C0E9
:103A80008091E30087FDFACF81E0809379020E9464
:103A9000781713C080917C02813079F481E09330F3
:103AA00009F080E0809377021092E9008091E800AD
:103AB000877F8093E8000E94441A8091E80083FF8A
:103AC0000AC08091E800877F8093E8008091EB0036
:103AD00080628093EB00AA96E3E00C94D01D0895D9
:103AE000CF93809179028823A1F0C091E900CF7033
:103AF0009091EC00892F817090FD80E8C82B109286
:103B0000E9008091E80083FD0E94281CCF70C093DB
:103B1000E900CF91089597FB072E16F4009407D083
:103B200077FD09D00E94DC1D07FC05D03EF490957E
:103B300081959F4F0895709561957F4F0895EE0F81
:103B4000FF1F0590F491E02D09942F923F924F9220
:103B50005F926F927F928F929F92AF92BF92CF921D
:103B6000DF92EF92FF920F931F93CF93DF93CDB726
:103B7000DEB7CA1BDB0B0FB6F894DEBF0FBECDBF9E
:103B800009942A88398848885F846E847D848C846F
:103B90009B84AA84B984C884DF80EE80FD800C8178
:103BA0001B81AA81B981CE0FD11D0FB6F894DEBF5B
:103BB0000FBECDBFED010895AA1BBB1B51E107C08D
:103BC000AA1FBB1FA617B70710F0A61BB70B881FAD
:103BD000991F5A95A9F780959095BC01CD0108953C
:103BE000FB01DC0104C08D910190801921F441504A
:103BF0005040C8F7881B990B0895FB01DC0102C0F7
:103C000001900D9241505040D8F70895F999FECF98
:103C100092BD81BDF89A992780B50895A8E1B0E0DA
:103C200042E050E00C944A1EDC01A40FB51F415045
:103C3000504048F0CB01840F951F2E910E94251E05
:103C400041505040D0F70895262FF999FECF92BDEC
:103C500081BDF89A019700B4021639F01FBA20BD51
:103C60000FB6F894FA9AF99A0FBE08950396272F83
:103C70000E94251E0E94241E252F0E94251E242FEF
:103C80000C94251E0196272F0E94251E0C94241E9D
:103C9000DC01CB01FC01F999FECF06C0F2BDE1BD0C
:103CA000F89A319600B40D9241505040B8F70895FB
:103CB000F894FFCFB203B203020402046704830442
:103CC000E103E1038804F904080508052C13A01397
:103CD0003413FE120213381306133C134813121345
:103CE000991316134C131A13501378131E135413ED
:103CF0007F1324135A1362130A1340130E13441331
:103D000028135E136E1388139713F8123013A7133A
:103D10005B1461144A14551467146D1473144C1C0D
:103D2000741C5D1D741C5D1DA71CC81C5D1D1F1D22
:023D30002B1D49
:103D3200FE01280850011E0A1401F7162C17251738
:103D42001E1701E200E900EA00B500B600B700CD97
:103D5200008301CC008A01920194012102230224F2
:103D6200022502260227022A02B300B4006F007065
:103D7200009F01CB019F02A002818283E200E90041
:103D8200EA00B500B600B700CD008301CC008A017D
:103D92009201940121022302240225022602270213
:103DA2002A02B300B4006F0070009F01CB019F0292
:0A3DB200A002818283353496973613
:00000001FF
